:0C0000000C94AD020C9400000C94000065
:10000C000C9400000C9400000C9400000C94000064
:10001C000C9400000C9400000C9400000C94000054
:10002C000C9400000C9400000C9400000C94000044
:10003C000C9400000C9400000C9400000C94000034
:10004C000C9400000C9400000C9400000C94000024
:10005C000C9400000C9400000C9400000C94000014
:10006C000C9400000C9400000C9400000C94000004
:10007C000C9400000C9400000C9400000C940000F4
:10008C00000000000100C0F9A4B0999282F88090A1
:10009C0000004D41494E204D454E550000000000DA
:1000AC000000000000000000202053656E736F728A
:1000BC00730000000000000000000000710520200B
:1000CC004163747561746F7273000000000000006E
:1000DC000000CF05202053657474696E67730000AF
:1000EC0000000000000000002D06130553454E5380
:1000FC004F52530000000000000000000000000000
:10010C000100202054656D70657261747572650014
:10011C000000000000008B06202048756D696469A2
:10012C00747900000000000000000000E9062020A7
:10013C004E6F6E65710554454D50455241545552A4
:10014C0045000000000000000000010020204F4E80
:10015C000000000000000000000000000000000093
:10016C00000020204F464600000000000000000068
:10017C00000000000000000020204E6F6E650000A3
:10018C0000000000000000000000000000001A0049
:10019C002D04710548554D4944495459000000003F
:1001AC000000000000000000020020204E6F6E6571
:1001BC000000000000000000000000000000000033
:1001CC0020204E6F6E650000000000000000000053
:1001DC0000000000000020204E6F6E6513054143A7
:1001EC00545541544F5253000000000000000000D1
:1001FC000000020020204C65647300000000000029
:10020C0000000000000000000308202052656C6113
:10021C007973000000000000000000000000470798
:10022C0020204D6F746F72730000000000000000FE
:10023C0000000000A507CF054C454453000000000A
:10024C000000000000000000000000000100202061
:10025C0053696E676C65204C6564000000000000FB
:10026C0000001D092020372D536567204C65640064
:10027C0000000000000000007B0920204E6F6E651E
:10028C00030853494E474C45204C4544530000004D
:10029C0000000000000001002020494E5445524C43
:1002AC0045415645000000000000000000002020E1
:1002BC0052554E000000000000000000000000003D
:1002CC000000000020204F46460000000000000007
:1002DC000000000000000000000015002D040308C1
:1002EC00372D534547204C45445300000000000077
:1002FC0000000000020020204F4E00000000000013
:10030C0000000000000000000000000020204F460C
:10031C00460000000000000000000000000000008B
:10032C00000020204E6F6E650000000000000000F1
:10033C00000000000000000016002D04CF055245FF
:10034C004C41595300000000000000000000000068
:10035C000000020020204F4E0000000000000000B2
:10036C000000000000000000000020204F46460066
:10037C000000000000000000000000000000000071
:10038C0020204F4646204752414455414C4C590081
:10039C0000000000000017002D04CF054D4F544FF6
:1003AC00525300000000000000000000000000009C
:1003BC00030020204D6F746F7231000000000000AC
:1003CC00000000000000610820204D6F746F723235
:1003DC00000000000000000000000000BF0820200A
:1003EC004E6F6E65A5074D4F544F522030310000B3
:1003FC000000000000000000000001002020466FFB
:10040C0072776172640000000000000000000000C0
:10041C00000020204261636B776172640000000071
:10042C000000000000000000202053746F700000DA
:10043C000000000000000000000000000000180098
:10044C002D04A5074D4F544F5220303200000000B0
:10045C00000000000000000002002020466F7277B0
:10046C006172640000000000000000000000000049
:10047C0020204261636B7761726400000000000011
:10048C00000000000000202053746F70000000007A
:10049C0000000000000000000000000019002D0406
:1004AC00130553455454494E4753000000000000B7
:1004BC00000000000000030020204E6F6E6500005D
:1004CC0000000000000000000000000000002020E0
:1004DC004E6F6E6500000000000000000000000080
:1004EC000000000020204E6F6E653E0006000400E8
:1004FC008C000A000605920002000005F6045A0062
:10050C0013059C004A007105F6005E008B06400145
:10051C004A00E9069E015A00CF05E8014A0003088B
:10052C0042025E001D098C025E007B09EA025E003D
:10053C00470748034A00A507A6035E006108F003BD
:10054C005E00BF084E044A002D06AC040000F8946F
:10055C00EE27ECBBF1E0F5BFE5BFE0936C008DE05E
:10056C00A2E0BB27ED938A95E9F780E090E1A0E04B
:10057C00B1E0ED930197E9F7E8EFF4E085919591FF
:10058C00009761F0A591B59105901590BF01F00110
:10059C0005900D920197E1F7FB01F0CF8BBFEFEFC8
:1005AC00EDBFE0E1EEBFC0E0D5E00C94EE040E949C
:1005BC005107E881E09300110E944C07E8E00E948B
:1005CC00FC06E09301110E9447070E940807E09384
:1005DC000211E8E10E94FC06E0930311AAEFB0E0DF
:1005EC000E94F80532C1BA93AA93A881B981E8EEAA
:1005FC00F3E00E941F07EA5FFA4FE081E0930711D6
:10060C00A881B981E4E6F0E0A4D2E0930611A881B8
:10061C00B981EAE0F0E09DD2E0930511A881B9819F
:10062C00EAE0F0E00E943207EA5FFA4FE081E093E3
:10063C000411CCC1EFEFE0930711E0930611E093A6
:10064C000511E0930411E0930911E0930911E09373
:10065C000911E09309110895AA93E881E0930E1112
:10066C0083D2A1E0B0E00E94F8056CC0AA93E881A7
:10067C00E0930D1179D266C0A8E3EEDFACE0ECDFBD
:10068C00A6E0EADFA1E0E8DF0895BA93AA93EA8135
:10069C00FB81309719F4A881A05814C0E130A0E078
:1006AC00FA0719F4A881A0540DC0E230A0E0FA07B3
:1006BC0019F4A881AC5606C0E330A0E0FA0719F48F
:1006CC00A881AC52C9DFAC81BD81EC91E03031F036
:1006DC00ED91AC83BD83AE2FC9DFF5CF269608957F
:1006EC001A93B89AC09880EC93E00197F1F7B898F8
:1006FC008BEB8A95F1F7E6B3E1701E2F84E393E060
:10070C000197F1F741C0AA9344245524E8E0F0E0A6
:10071C004E165F06BCF4B89AC098E881E17021F0DF
:10072C0088E28A95F1F703C080EA8A95F1F7B898C8
:10073C0080E58A95F1F7E881E695E883F201319638
:10074C002F01E4CF219608951A9310E044245524E8
:10075C00E8E0F0E04E165F06BCF4B89AC09888E268
:10076C008A95F1F7B89888E28A95F1F71695E6B371
:10077C00E170E795E0E0E7951E2B80E58A95F1F7AF
:10078C00F20131962F01E4CFE12F199108952297B0
:10079C00A7DFE03051F5ACECB6DFA4E4B4DFB898D9
:1007AC00AEEEB2E00E94F8059BDFE883ACECABDF69
:1007BC00AEEBA9DFC9DFE883C7DFE9836881772760
:1007CC00A981B0E0E0E0F1E00E941A07E60FF71F04
:1007DC000E940D070E946806A0E0B0E080E89DE34F
:1007EC000E9496060E942F06F1C0E0E0F0E0EEC0F9
:1007FC00BA93AA93EA81FB813296FA93EA93E0E0EA
:10080C00F0E0FA93EA93A6E0BED17896FA93EA93D5
:10081C00E1E0F0E0FA93EA93A0E0B5D1BE96FA934A
:10082C00EA93E2E0F0E0FA93EA93A0E0ACD1EC5B5F
:10083C00FF4FFA93EA93E3E0F0E0AAD1E0E0F5E0B1
:10084C00FA93EA93EA81FB81A3D124960895AA93A3
:10085C00A981A531C9F5A1D129F4A5E5B5E585E5B1
:10086C0095E530C0E230A0E0FA0721F54424552488
:10087C00E0E2F0E04E165F06E4F4E42DA1E0B0E017
:10088C0080E090E00E94F006E0930205F0930305EF
:10089C006093040570930505A0910205B0910305C2
:1008AC00809104059091050582DEF20131962F01AD
:1008BC00DFCF09C0E330A0E0FA0729F4A0E0B0E0F4
:1008CC0080E090E074DE82C0A981A63161F465D12C
:1008DC0021F4A0E4B8E087DE05C0E230A0E0FA071E
:1008EC0009F4A8DE73C0A981A73131F556D111F4F2
:1008FC00EFEF1BC0E230A0E0FA0711F4E0E015C006
:10090C00E330A0E0FA0799F4E0911005EF774BD1B2
:10091C00EF7B49D1EF7D47D1EF7E45D1E77F43D1C6
:10092C00EB7F41D1ED7F3FD1EE7FE0931005E0915D
:10093C001005E0930A114AC0A981A831D9F42DD130
:10094C0029F4E0911105EC7FE16010C0E230A0E0E9
:10095C00FA0729F4E0911105EC7FE26007C0E3305F
:10096C00A0E0FA0729F4E0911105EC7FE093110562
:10097C0025D12CC0A981A931D9F40FD129F4E0914A
:10098C001105E37FE46010C0E230A0E0FA0729F41F
:10099C00E0911105E37FE86007C0E330A0E0FA07BF
:1009AC0029F4E0911105E37FE093110507D10EC006
:1009BC00A981AA3159F4F1D021F4E9DEDF0113DE6B
:1009CC0005C0E230A0E0FA0709F434DE229608955F
:1009DC00E5B7E068E5BFE0E0E0936D002BDEE09169
:1009EC001105EC7FE0931105E37FE0931105E6D050
:1009FC00E0916400E860E09364003EDEE3E1F5E042
:100A0C003F01E1D0E4D0E0911205E47099F4E0915B
:100A1C001205E47011F4DBD0FACFE1E0F0E0E81558
:100A2C00F90519F4E3E0F0E002C0F40131974F014D
:100A3C00CAD08DC0E0911205E07199F4E0911205D5
:100A4C00E07111F4C4D0FACFE3E0F0E0E815F90559
:100A5C0019F4E1E0F0E002C0F40131964F01B3D09B
:100A6C0076C0E0911205E870C1F5E0911205E870CE
:100A7C0011F4ADD0FACFF401E130A0E0FA0759F44B
:100A8C00D3019C960E944307309721F0FBDDD301E4
:100A9C009C96A2D021C0E230A0E0FA0769F4D30101
:100AAC00AE5BBF4F0E944307309729F0EBDDD301BB
:100ABC00AE5BBF4F91D010C0E330A0E0FA0761F4F9
:100ACC00D301A85ABF4F0E944307309729F0DADDB3
:100ADC00D301A85ABF4F80D03AC0E0911205E27002
:100AEC00A9F4E0911205E27011F471D0FACFD301A0
:100AFC000E944307309749F0C5DDD30156968D907F
:100B0C009C90D3016D907C905ED021C0E091120539
:100B1C00E170E9F4E0911205E17011F458D0FACFCC
:100B2C00D301A45ABF4F0E944307309781F0D301E1
:100B3C00A45ABF4F0E944307FF93EF93D301A65AC9
:100B4C00BF4FEC91EA93A82DEF91FF9109955ACFE5
:100B5C00FFCF0E941F07DF01EAE0F0E00E9432079E
:100B6C00EA5FFA4FE0810895E0916500E860E09358
:100B7C006500A1E0B0E00E94F805E0916500E77F18
:100B8C00E09365000895B0E080DDEA81FB81089573
:100B9C00FA93EA93A0E0B0E078CDE881F0E0E130A0
:100BAC00A0E0FA070895E0931005E0930A11A4EF72
:100BBC00B1E00E94F805E09110050895E09111054F
:100BCC00E0930B1108957A926A92D40111CEE091C0
:100BDC000C11E093120508956D907C90E1E0F0E02B
:100BEC004F01F1CF109639F080ED97E00197F1F7B6
:100BFC00A8951197C9F70895552342F4503811F46C
:100C0C00E0FF04C03196691F791F6BF050E857273D
:100C1C0011F45F9373C05F3F31F0660F000C579572
:100C2C006795752F08955F9300200AF073C06CC010
:100C3C0050E8192E1522880F991F9527550F879567
:100C4C0050E8072E0522660F771F7527550F6795FD
:100C5C000895689401C0E8945F93F2DF703818F03F
:100C6C007F3F08F44BC056E1571BAAF451955830FE
:100C7C000EF4593030F0EFEFFFEF6FEF7FE777F9BD
:100C8C001AC077275523B9F0EE0FFF1F661F771F89
:100C9C005A95D1F710C07727583028F0EF2FF62F40
:100CAC00672F5850F9CF552331F076956795F79506
:100CBC00E7955A95D1F700200AF484D05F910895F6
:100CCC00689401C0E894309760407040B1F0002403
:100CDC0026F0772312F4009475D0172E7EE11120A4
:100CEC0032F07A95EE0FFF1F661F111CF9CFEF2F14
:100CFC00F62F612D5F938ADF5F910895EE27FF2712
:100D0C00662777275F910895EFEFFFEF6FE77FEF8F
:100D1C005F910895EFEFFFEF6FE77FE75F91089525
:100D2C005F9386DF703851F3903841F301240894B7
:100D3C00791F23F41CF300203AF3ECCF0F921F938E
:100D4C002F933F934F93112722279927689FA00138
:100D5C008F9F302D410D591F6B9F300D411D591F19
:100D6C008E9F27D0BF9F25D06A9F23D0BE9F1DD0BA
:100D7C00AF9F1BD0AE9F110D291F391F491F591F43
:100D8C00E32FF42F652F522F4F913F912F911F91ED
:100D9C000F9066232AF0550FEE1FFF1F661F02C02F
:100DAC0073954BF229DF5F910895100D211D391FAA
:100DBC0002C0200D311D491F591F0895F195E19571
:100DCC00F0400895F09560957095E195FF4F6F4F49
:100DDC007F4F0895EE230E2EFD01BC0131F0EE0F76
:100DEC00FF1F661F771F0A94D1F70895EE230E2E6E
:100DFC00FD01BC0131F076956795F795E7950A945E
:100E0C00D1F70895E62FF72F60E070E008956F2F6B
:100E1C00660F660B762F0895FA9FF02DEB9FF00D61
:100E2C00EA9FE02DF10D08951AD0F6DF0EF4C6DF1F
:100E3C0008950024112490E1AA0FBB1F001C111C63
:100E4C000E1A1F0A18F40E0E1F1E01C0A1609A95EF
:100E5C0099F7FD01D0010895ECDFFD010895E894A8
:100E6C00F7FF02C0ABDF6894B7FF06C0A095B09542
:100E7C00119600F8039400FA0895ED91FC911197E6
:100E8C000895E881F9816A817B810895A881B981EF
:100E9C008A819B8108959A938A93BA93AA93089511
:00000001FF
